:100000000C9458000C9480000C9480000C94800098
:100010000C9480000C9480000C9480000C94800060
:100020000C9480000C9480000C9480000C94800050
:100030000C9480000C9480000C9480000C94800040
:100040000C946A060C9480000C9438060C941206EA
:100050000C9480000C9480000C9480000C94800020
:100060000C94B4060C9480000000000025002800C9
:100070002B00040404040404040402020202020229
:10008000030303030303010204081020408001025C
:1000900004081020010204081020000000080002DB
:1000A0000100000304070000000000000000D30767
:1000B00011241FBECFEFD8E0DEBFCDBF11E0A0E01E
:1000C000B1E0EEEDFEE102C005900D92A23CB10759
:1000D000D9F723E0A2ECB1E001C01D92A439B20728
:1000E000E1F710E0C8E5D0E004C02197FE010E94CE
:1000F000670FC735D107C9F70E9415080C946D0F1B
:100100000C9400009091E2029111FCCF91E0909349
:10011000E2029093E1022FEF2093E0021092DF02BF
:10012000260F2093DE029093DD029091DD02880F6E
:10013000892B8093DD028091DC028130F9F41092EA
:10014000DC028091DD028093BB008091BC0083FDC6
:10015000F8CF85EC8093BC008091E2028130E1F31E
:100160008091DF02861710F46091DF02ACEBB2E001
:10017000ECE9F2E080E0861303C0089585EEEACF53
:100180009D9191938F5FF7CF982F20919B0281E0F3
:10019000213208F043C08091E2028111FCCF8091AE
:1001A0009A0232E03093E2029093E1029FEF909343
:1001B000E0021092DF022093DE02AAE7B2E0ECEB4D
:1001C000F2E090E0291331C01092DD029091DD023F
:1001D000880F892B8093DD028091DC02813049F504
:1001E0001092DC028091DD028093BB008091BC0004
:1001F00083FDF8CF85EC8093BC008091E2028230D1
:10020000E1F38091E0028F3FB1F08091E002803213
:10021000A1F08091E002803391F084E010927902A5
:1002200010929B021092780208953D9131939F5F46
:10023000C9CF85EEE0CF80E0F1CF82E0EFCF83E061
:10024000EDCF90E0FC01E656FF4F2491FC01EA5708
:10025000FF4F3491FC01EE58FF4FE491EE23B1F0D3
:10026000222339F02330E9F090F4213001F12230DB
:1002700011F1F0E0EE0FFF1FE859FF4FA591B49187
:100280008FB7F894EC913E2B3C938FBF08952730A5
:10029000A9F02830C9F0243061F7809180008F7D6B
:1002A00003C0809180008F7780938000E2CF84B577
:1002B0008F7784BDDECF84B58F7DFBCF8091B0007A
:1002C0008F778093B000D5CF8091B0008F7DF9CF2C
:1002D00008950895AF92BF92CF92DF92EF92FF926E
:1002E0000F931F93CF93DF936C017B018B01040F5E
:1002F000151FEB015E01AE18BF08C017D10759F0FA
:100300006991D601ED91FC910190F081E02DC6013B
:100310000995892B79F7C501DF91CF911F910F9135
:10032000FF90EF90DF90CF90BF90AF900895FC01C9
:10033000538D448D252F30E0842F90E0821B930B4A
:10034000541710F0CF96089501970895FC01918DF0
:10035000828D981761F0A28DAE0FBF2FB11D5D96F3
:100360008C91928D9F5F9F73928F90E008958FEF95
:100370009FEF0895FC01918D828D981731F0828D49
:10038000E80FF11D858D90E008958FEF9FEF0895A0
:10039000FC01918D228D892F90E0805C9F4F821B04
:1003A00091098F739927089583EE92E00E94C80106
:1003B00021E0892B09F420E0822F089580E090E06D
:1003C000892B29F00E94D40181110C94000008951A
:1003D000FC01A48DA80FB92FB11DA35ABF4F2C91BA
:1003E000848D90E001968F739927848FA689B789B1
:1003F0002C93A089B1898C91837080648C93938DA8
:10040000848D981306C00288F389E02D80818F7D4A
:1004100080830895EF92FF920F931F93CF93DF9302
:10042000EC0181E0888F9B8D8C8D98131AC0E88930
:10043000F989808185FF15C09FB7F894EE89FF89FF
:100440006083E889F98980818370806480839FBF9D
:1004500081E090E0DF91CF911F910F91FF90EF909D
:100460000895F62E0B8D10E00F5F1F4F0F731127AD
:10047000E02E8C8D8E110CC00FB607FCFACFE889E8
:10048000F989808185FFF5CFCE010E94E801F1CF87
:10049000EB8DEC0FFD2FF11DE35AFF4FF0829FB75C
:1004A000F8940B8FEA89FB8980818062CFCFCF934C
:1004B000DF93EC01888D8823B9F0AA89BB89E8898C
:1004C000F9898C9185FD03C0808186FD0DC00FB632
:1004D00007FCF7CF8C9185FFF2CF808185FFEDCFB0
:1004E000CE010E94E801E9CFDF91CF9108953FB797
:1004F000F89480910A0290910B02A0910C02B091A5
:100500000D0226B5A89B05C02F3F19F00196A11D2D
:10051000B11D3FBFBA2FA92F982F8827BC01CD014D
:10052000620F711D811D911D42E0660F771F881FAC
:10053000991F4A95D1F708958F929F92AF92BF92DB
:10054000CF92DF92EF92FF924B015C010E94770203
:100550006B017C010E9477026C197D098E099F094D
:10056000683E734081059105A8F321E0821A910845
:10057000A108B10888EEC80E83E0D81EE11CF11C6A
:1005800081149104A104B10429F7FF90EF90DF904A
:10059000CF90BF90AF909F908F900895DC01ED9128
:1005A000FC910190F081E02D09941F93CF93DF938C
:1005B000142FCCE8D3E0288139819A8141E040931F
:1005C000780290939A021092790210929B028068AE
:1005D000682F70E0C9010E94CE0288819981DC01F8
:1005E000ED91FC910190F081E02D612F099581E062
:1005F000DF91CF911F910C94C40085ED8093BC00D6
:100600008091BC0084FDFCCF1092E20208952091FD
:10061000E201260F3327331F21323105ECF42091FC
:10062000E202FC0190E080E0243069F082E008956D
:10063000A091E2012191AC014E535E4FA40FB52F62
:10064000B11D2C930196861798F38091E201680FF3
:100650006093E20180E0089581E008950895E091BB
:10066000770280917602E81730F4F0E0E456FD4F0F
:10067000808190E008958FEF9FEF08959091770229
:10068000809176022FEF3FEF981748F4E92FF0E0C2
:10069000E456FD4F208130E09F5F90937702C901BF
:1006A00008958091760290917702891B990B0895A5
:1006B000CF92DF92EF92FF920F931F93CF93DF932E
:1006C0007C01CB018A0120917802222389F0EB0181
:1006D0006B01C40ED51ECC15DD0569F06991D701FB
:1006E000ED91FC910190F081E02DC7010995F3CFC8
:1006F000642F0E940703C801DF91CF911F910F91D2
:10070000FF90EF90DF90CF900895CF93DF931F92EB
:10071000CDB7DEB76983209178022223F9F02091CA
:100720009B02203258F021E030E0FC013383228329
:1007300090E080E00F90DF91CF9108958091790251
:10074000E82FF0E0E658FD4F998190838F5F80930A
:10075000790280939B0281E090E0ECCF61E0CE01D2
:1007600001960E940703F7CF90E080E00895FC0116
:1007700001900020E9F73197AF01481B590BBC01EC
:1007800083EE92E00C946A018F929F92AF92BF9297
:100790000F931F93CF93DF93CDB7DEB7A1970FB61B
:1007A000F894DEBF0FBECDBF19A2423008F44AE074
:1007B0008E010F5D1F4F842E912CB12CA12CA50111
:1007C00094010E94450FE62FB901CA01EA30F4F402
:1007D000E05DD801EE938D01232B242B252B79F797
:1007E00090E080E0109719F0CD010E94B703A19628
:1007F0000FB6F894DEBF0FBECDBFDF91CF911F9132
:100800000F91BF90AF909F908F900895E95CE1CFDA
:100810000C94B703CF93DF930E94B703EC0184E2FB
:1008200091E00E94B7038C0F9D1FDF91CF91089537
:100830004F925F926F927F928F929F92AF92BF92F0
:10084000CF92DF92EF92FF920F931F93CF936B01A2
:100850007C01742EAC019B010E942B0F882399F020
:1008600087E291E0CF911F910F91FF90EF90DF9081
:10087000CF90BF90AF909F908F907F906F905F9040
:100880004F900C94B70346015701E894B7F82FEF47
:100890003FEF4FE75FE7C501B4010E942B0F8111C5
:1008A0000DC02FEF3FEF4FE75FE7C501B4010E9496
:1008B0001B0D18161CF48BE291E0D4CF2FEF3FEF05
:1008C0004FE75FE4C701B6010E94730E18161CF4CF
:1008D0008FE291E0C7CF2FEF3FEF4FE75FECC7010B
:1008E000B6010E941B0D87FDF3CF20E030E0A90187
:1008F000C701B6010E941B0D10E000E087FF0AC08F
:100900006DE283EE92E00E940A028C01F7FAF09405
:10091000F7F8F094C0E060E070E080E09FE37C16C0
:1009200041F020E030E040E251E40E94200DCF5F32
:10093000F6CFA70196010E94AF0C2B013C010E944B
:10094000920D4B015C014AE00E94C4037C01E00E61
:10095000F11ECC23C1F1C501B4010E94C10D9B0160
:10096000AC01C301B2010E94AE0C4B015C016EE20E
:1009700083EE92E00E940A02E80EF91EC15018F1BF
:1009800020E030E040E251E4C501B4010E94780E5D
:100990002B013C010E94920D4B01B12CA12C4AE08D
:1009A000C501B4010E94C403E80EF91EC501B401DB
:1009B0000E94C10D9B01AC01C301B2010E94AE0CAB
:1009C0004B015C01DBCFC701CF911F910F91FF90CD
:1009D000EF90DF90CF90BF90AF909F908F907F90DF
:1009E0006F905F904F9008950F931F93CF93DF9375
:1009F000CCE8D3E0288139819A8141E040937802A4
:100A000090939A021092790210929B028068682F4C
:100A100070E0C9010E94CE0281E00E94C40062E041
:100A20008A810E94820010927702809376028881E8
:100A30009981DC01ED91FC910284F385E02D09950B
:100A40008C0188819981DC01ED91FC910284F38510
:100A5000E02D099520E0382FC801822B932BDF91E0
:100A6000CF911F910F910895CF93DF93109277024A
:100A7000109276021092790210929B021092E2027A
:100A8000C1E0C093E1021092DC0282E10E942101E8
:100A900083E10E9421018091B9008E7F8093B9008B
:100AA0008091B9008D7F8093B90088E48093B8006D
:100AB00085E48093BC0088E691E090937502809372
:100AC000740289E691E090937302809372028091A0
:100AD0008C0390918D0320918E03C0937802209314
:100AE0009A021092790210929B0262E970E00E94D1
:100AF000CE0281E00E94C40061E080918E030E94DA
:100B00008200109277028093760280918C039091FC
:100B10008D03DC01ED91FC910284F385E02D0995B4
:100B2000843419F0803109F079C081E080938F031B
:100B3000C0919203D0919303AE0170E060E00E94F7
:100B4000D502D0939303C0939203C0919003D091A8
:100B5000910380918F0381110BC089E280938E03F2
:100B600080E893E090938D0380938C030E9434057A
:100B7000AE0170E060E08FE00E94D502D093910357
:100B8000C093900341E050E060E070E080E00E949C
:100B9000D50263E070E080E090E00E949C0243E0B8
:100BA00050E060E070E080E00E94D5028091920306
:100BB00090919303853D910511F138F4009749F127
:100BC000803C910509F181E02AC0863F910591F0B2
:100BD0008F3F910541F08B3E9105A9F762E370E0EC
:100BE00080E090E004C063E070E080E090E00E946C
:100BF0009C02E9CF68E170E080E090E0F8CF65E624
:100C000070E080E090E0F3CF6AE970E080E090E08F
:100C1000EECF6CEB72E080E090E0E9CF80E0DF9116
:100C2000CF9108951F920F920FB60F9211242F9318
:100C30003F934F935F936F937F938F939F93AF9364
:100C4000BF93EF93FF9383EE92E00E94E801FF9140
:100C5000EF91BF91AF919F918F917F916F915F9134
:100C60004F913F912F910F900FBE0F901F901895AD
:100C70001F920F920FB60F9211242F938F939F9371
:100C8000EF93FF93E091F302F091F4028081E09101
:100C9000F902F091FA0282FD1BC090818091FC0262
:100CA0008F5F8F732091FD02821741F0E091FC026B
:100CB000F0E0ED51FD4F958F8093FC02FF91EF9195
:100CC0009F918F912F910F900FBE0F901F901895AD
:100CD0008081F4CF1F920F920FB60F9211242F93A1
:100CE0003F938F939F93AF93BF9380910602909110
:100CF0000702A0910802B09109023091050223E099
:100D0000230F2D3758F50196A11DB11D2093050223
:100D10008093060290930702A0930802B093090201
:100D200080910A0290910B02A0910C02B0910D02E9
:100D30000196A11DB11D80930A0290930B02A0930E
:100D40000C02B0930D02BF91AF919F918F913F9193
:100D50002F910F900FBE0F901F90189526E8230F2C
:100D60000296A11DB11DD2CF1F920F920FB60F9206
:100D700011242F933F934F935F936F937F938F93A0
:100D80009F93AF93BF93EF93FF938091B900887FB8
:100D9000803609F44AC0F0F5883209F4A7C018F586
:100DA000803109F49BC0B8F4882309F4F9C0883075
:100DB00009F494C0FF91EF91BF91AF919F918F91F2
:100DC0007F916F915F914F913F912F910F900FBE47
:100DD0000F901F901895883109F488C0803251F720
:100DE0008093E00214C0803409F49DC040F4803345
:100DF000B9F38833F9F68093E00285ECB0C0803512
:100E000009F485C0883509F496C0883499F60E94A3
:100E1000FD02D0CF883909F48CC038F5883729F025
:100E200050F4883611F0803729F683E08093E2028F
:100E30001092040257C0883809F47BC0803919F039
:100E4000803809F0B7CF80910402803208F071C079
:100E5000E091040281E08E0F809304028091BB0038
:100E6000F0E0EC51FE4F80833DC0803B39F0E0F470
:100E7000803A09F479C0883A09F09CCF84E08093E5
:100E8000E2021092E3011092E201E0917402F0910B
:100E9000750209958091E20181110FC081E0809374
:100EA000E2011092C20109C0803C09F4A6CF883C3F
:100EB00009F4A3CF883B09F07DCFE091E30181E005
:100EC0008E0F8093E301F0E0EE53FE4F808180931C
:100ED000BB009091E3018091E20129C08091DD0285
:100EE0008093BB0085EC8093BC0064CF9091DF02BF
:100EF0008091DE02981758F5E091DF0281E08E0FB5
:100F00008093DF02F0E0E454FD4F8081E9CFE0916F
:100F1000DF0281E08E0F8093DF028091BB00F0E062
:100F2000E454FD4F80839091DF028091DE02981798
:100F3000C8F285E8D8CFE091DF0281E08E0F809380
:100F4000DF028091BB00F0E0E454FD4F808380918C
:100F5000E10281115CCF81E08093DC0284EA80931E
:100F6000BC001092E20226CF85EC8093BC00109268
:100F7000E20280910402803230F4E0910402F0E059
:100F8000EC51FE4F10826091040270E0E091720219
:100F9000F091730284EE91E00995109204020ACF59
:100FA0001092E00234CFE3EEF2E01382128288EE78
:100FB00093E0A0E0B0E084839583A683B78324E028
:100FC00031E03183208325EC30E03587248724EC21
:100FD00030E03787268720EC30E0318B208B21EC06
:100FE00030E0338B228B22EC30E0358B248B26ECE7
:100FF00030E0378B268B118E128E138E148EE0E824
:10100000F3E01382128284839583A683B78386E1FB
:1010100091E091838083ECE8F3E013828FEF90E01E
:1010200097838683158214820895CF93DF93CDB77B
:10103000DEB7A2970FB6F894DEBF0FBECDBF78948F
:1010400084B5826084BD84B5816084BD85B58260CD
:1010500085BD85B5816085BD80916E00816080937E
:101060006E001092810080918100826080938100E7
:1010700080918100816080938100809180008160F7
:10108000809380008091B10084608093B100809152
:10109000B00081608093B00080917A00846080937A
:1010A0007A0080917A00826080937A0080917A0041
:1010B000816080937A0080917A00806880937A00C2
:1010C0001092C100E091F302F091F40282E080837B
:1010D000E091EF02F091F0021082E091F102F091C4
:1010E000F20280E180831092FB02E091F702F0911E
:1010F000F80286E08083E091F502F091F6028081AB
:1011000080618083E091F502F091F6028081886031
:101110008083E091F502F091F602808180688083FF
:10112000E091F502F091F60280818F7D808389EE57
:1011300097EBAFE5BFE380930E0290930F02A0936D
:101140001002B09311028EE492E6A0EBBEE380930E
:10115000260290932702A0932802B093290287E9E0
:1011600090E9AFEABEE380933E0290933F02A093E2
:101170004002B093410286EB93EFADEFBEE3809364
:10118000120290931302A0931402B093150281E708
:101190009DE3AAE4BFE380932A0290932B02A093DD
:1011A0002C02B0932D028EEF94EDA8EBBEE380935A
:1011B000420290934302A0934402B093450285E813
:1011C0009BEEA1E5BFE38093160290931702A093D4
:1011D0001802B093190280EB92E7A8EEBEE3809369
:1011E0002E0290932F02A0933002B093310281E23D
:1011F00090EBA2EBBEE38093460290934702A0934C
:101200004802B09349028DE39AE0A7E3BFE38093DD
:101210001A0290931B02A0931C02B0931D0284EA51
:1012200090E7ADE1BFE38093320290933302A09345
:101230003402B09335028AEF9EE7AAEABEE38093B8
:101240004A0290934B02A0934C02B0934D0283E26A
:101250009BEDA9E1BFE380931E0290931F02A09330
:101260002002B09321028093360290933702A0931C
:101270003802B093390280EF97EAA6E0BFE380938B
:101280004E0290934F02A0935002B093510286E415
:1012900096EBA3E1BFE38093220290932302A093F5
:1012A0002402B093250280933A0290933B02A093CC
:1012B0003C02B0933D028093520290935302A0935C
:1012C0005402B093550289E280938E0380E893E044
:1012D00090938D0380938C030E943405882309F436
:1012E00035C183E391E00E940A04CE0101969A8FF2
:1012F000898F80918F0381110BC099E290938E03A7
:10130000A0E8B3E0B0938D03A0938C030E94340552
:1013100084E10E94F40486E10E94F4046C0188E1F7
:101320000E94F4048C018AE10E94F4047C01809103
:10133000920390919303853D910509F427C108F02C
:101340000AC1009709F42CC1803C910509F423C11E
:10135000B60190E080E00E94C10D2B013C01B80174
:1013600090E080E00E94C10D4B015C01B70190E06C
:1013700080E00E94C10D6D8F7E8F8F8F98A3A30197
:101380009201C301B2010E94780E6B017C01A5019C
:101390009401C501B4010E94780E9B01AC01C70104
:1013A000B6010E94AF0C6B017C012D8D3E8D4F8DDF
:1013B00058A1CA01B9010E94780E9B01AC01C70176
:1013C000B6010E94AF0C0E94EB0E6B017C01AC01D8
:1013D0009B01C301B2010E94200D6B8F79A33C01D8
:1013E000CB01D30180936E0290936F02A0937002A1
:1013F000B0937102A7019601C501B4010E94200DAE
:101400004B015C01CB01D50180936A0290936B0282
:10141000A0936C02B0936D02A70196016D8D7E8D35
:101420008F8D98A10E94200D6D8F7AA36C01CB0146
:10143000D6018093660290936702A0936802B093EE
:1014400069029401A5016B8D79A1C3010E941B0D56
:1014500087FDABC0582C492C3A2C2B2C252D342D34
:10146000432D522D6D8D7AA1C6010E94730E181660
:1014700024F05D8C4AA03C2C2D2C9401A5016B8D91
:1014800079A1C3010E94730E7401850118161CF422
:10149000EB8CF9A083019701A8016D8D7AA1C6019B
:1014A0000E941B0D87FD03C0ED8CFAA08601C701C9
:1014B000D80180935A0290935B02A0935C02B09390
:1014C0005D0220E030E0A901B701C8010E941B0DB8
:1014D000882309F46FC0252D342D432D522DB701DB
:1014E000C8010E94AE0C1B012C019701A8010E94AB
:1014F000200D60935E0270935F0280936002909370
:1015000061029701A8016B8D79A1C3010E941B0D97
:10151000882309F493C19701A801B401C5010E9471
:101520001B0D8111BEC12B8D39A1A3016D8D7AA137
:10153000C6010E94AE0CA20191010E94200D20E084
:1015400030E040E050E40E94AF0C83C180E491E0C1
:101550000E940A04FFCF863F910599F08F3F9105C5
:1015600049F08B3E910509F0F3CE62E370E080E034
:1015700090E004C063E070E080E090E00E949C0294
:10158000E7CE68E170E080E090E0F8CF65E670E0DB
:1015900080E090E0F3CF6AE970E080E090E0EECF89
:1015A0006CEB72E080E090E0E9CF5B8C49A0362CD8
:1015B000272C54CF10925E0210925F0210926002AC
:1015C0001092610280E090E0A0E8BFEB809362029D
:1015D00090936302A0936402B093650288E1A98DA1
:1015E000BA8D1D928A95E9F70EE012E0FE01319660
:1015F000FC8FEB8F1F01C12CD12C7601D8014D90AF
:101600005D906D907D908D0120916A0230916B020A
:1016100040916C0250916D0254966D917D918D9127
:101620009C9157970E94780E4B015C0120916E02AD
:1016300030916F024091700250917102C301B2016A
:101640000E94780E9B01AC01C501B4010E94AF0C51
:101650004B015C0120916602309167024091680263
:1016600050916902F80164A575A586A597A50E9409
:10167000780E9B01AC01C501B4010E94AF0C4B0177
:101680005C01D1018D929D92AD92BD921D018DE6BE
:1016900091E00E9408044AE0C701B6010E94C40319
:1016A0008EE791E00E94080443E0C501B4010E9466
:1016B000180484E291E00E94B703BFEFCB1ADB0A63
:1016C000EB0AFB0AE6E0CE16D104E104F10409F0CE
:1016D00095CF69807A808B809C8010E000E0B12CEF
:1016E000A12CAB8DBC8DCD90DD90ED90FD90BC8F8D
:1016F000AB8FA7019601B301C4010E941B0D87FFA8
:1017000003C0850136014701BFEFAB1ABB0AE6E013
:10171000AE16B10431F7C301D40180935602909301
:101720005702A0935802B093590282E791E00E94B9
:10173000080460916E0270916F0280917002909126
:10174000710243E00E94180486E791E00E940804B9
:1017500089E791E00E94080460916A0270916B022F
:1017600080916C0290916D0243E00E94180486E71C
:1017700091E00E9408048DE791E00E9408046091C6
:10178000660270916702809168029091690243E05D
:101790000E94180486E791E00E94080481E891E025
:1017A0000E94080460916202709163028091640259
:1017B0009091650243E00E94180486E791E00E9440
:1017C000080485E891E00E94080460915E0270912F
:1017D0005F02809160029091610243E00E941804D0
:1017E00086E791E00E9408048DE791E00E940804DA
:1017F00060915A0270915B0280915C0290915D024F
:1018000043E00E94180486E791E00E94080483E9FF
:1018100091E00230110509F475C00CF063C089E84D
:1018200091E00115110509F46DC08DE891E00130DA
:10183000110509F467C080EB91E064C02D8D3AA1D9
:10184000A601B401C5010E94AE0CA20191010E9443
:10185000200D609362027093630280936402909300
:10186000650220E030E040E752E46091620270914E
:10187000630280916402909165020E94780E6B0170
:101880007C0120E030E0A9010E941B0D87FD19C0FA
:10189000C0926202D0926302E0926402F09265020A
:1018A0009DCE9401A5016B8D79A1C3010E94AE0C60
:1018B000A20191010E94200D20E030E040E850E4B8
:1018C00042CE20E030E044EB53E4C701B6010E9471
:1018D000AF0C6093620270936302809364029093F2
:1018E00065027CCE81EA91E00430110559F08AE965
:1018F00091E00430110534F088EA91E005301105DB
:1019000009F099CF0E94080486EB91E00E94080438
:10191000609156027091570280915802909159023D
:1019200042E00E9418048EEB91E00E94080486E2D7
:1019300091E00E940A0468EE73E080E090E00E946B
:101940009C0280E090E0892B09F4D3CC0E94D40162
:10195000882309F4CECC0E940000CBCC5058BB2782
:10196000AA270E94C60C0C94390E0E942B0E38F048
:101970000E94320E20F039F49F3F19F426F40C94A3
:10198000280E0EF4E095E7FB0C94220EE92F0E943E
:101990004A0E58F3BA17620773078407950720F0B9
:1019A00079F4A6F50C946C0E0EF4E0950B2EBA2F7C
:1019B000A02D0B01B90190010C01CA01A001112455
:1019C000FF27591B99F0593F50F4503E68F11A1601
:1019D000F040A22F232F342F4427585FF3CF469592
:1019E00037952795A795F0405395C9F77EF41F16B4
:1019F000BA0B620B730B840BBAF09150A1F0FF0F7E
:101A0000BB1F661F771F881FC2F70EC0BA0F621F69
:101A1000731F841F48F4879577956795B795F79559
:101A20009E3F08F0B0CF9395880F08F09927EE0FEE
:101A30009795879508950E94FE0D08F481E008951A
:101A40000E94340D0C94390E0E94320E58F00E9400
:101A50002B0E40F029F45F3F29F00C94220E511117
:101A60000C946D0E0C94280E0E944A0E68F3992374
:101A7000B1F3552391F3951B550BBB27AA2762178A
:101A80007307840738F09F5F5F4F220F331F441F97
:101A9000AA1FA9F335D00E2E3AF0E0E832D09150CB
:101AA0005040E695001CCAF72BD0FE2F29D0660FB8
:101AB000771F881FBB1F261737074807AB07B0E8FB
:101AC00009F0BB0B802DBF01FF2793585F4F3AF001
:101AD0009E3F510578F00C94220E0C946D0E5F3FE2
:101AE000E4F3983ED4F3869577956795B795F79587
:101AF0009F5FC9F7880F911D9695879597F908956F
:101B0000E1E0660F771F881FBB1F6217730784070A
:101B1000BA0720F0621B730B840BBA0BEE1F88F719
:101B2000E09508950E94520E88F09F5798F0B92FC3
:101B30009927B751B0F0E1F0660F771F881F991F02
:101B40001AF0BA95C9F714C0B13091F00E946C0E2A
:101B5000B1E008950C946C0E672F782F8827B85F3A
:101B600039F0B93FCCF3869577956795B395D9F75A
:101B70003EF490958095709561957F4F8F4F9F4F64
:101B80000895E89409C097FB3EF490958095709570
:101B900061957F4F8F4F9F4F9923A9F0F92F96E9B9
:101BA000BB279395F695879577956795B795F1112E
:101BB000F8CFFAF4BB0F11F460FF1BC06F5F7F4FCB
:101BC0008F4F9F4F16C0882311F096E911C07723DD
:101BD00021F09EE8872F762F05C0662371F096E8E6
:101BE000862F70E060E02AF09A95660F771F881FB5
:101BF000DAF7880F9695879597F90895990F000859
:101C0000550FAA0BE0E8FEEF16161706E807F907CE
:101C1000C0F012161306E407F50798F0621B730B69
:101C2000840B950B39F40A2661F0232B242B252BEA
:101C300021F408950A2609F4A140A6958FEF811D8D
:101C4000811D089597F99F6780E870E060E008952E
:101C50009FEF80EC089500240A94161617061806C4
:101C60000906089500240A941216130614060506A0
:101C70000895092E0394000C11F4882352F0BB0F31
:101C800040F4BF2B11F460FF04C06F5F7F4F8F4F94
:101C90009F4F089557FD9058440F551F59F05F3FCF
:101CA00071F04795880F97FB991F61F09F3F79F07E
:101CB00087950895121613061406551FF2CF469500
:101CC000F1DF08C0161617061806991FF1CF869582
:101CD0007105610508940895E894BB276627772766
:101CE000CB0197F908950E94FE0D08F48FEF089537
:101CF0000E948B0E0C94390E0E942B0E38F00E941D
:101D0000320E20F0952311F00C94220E0C94280E24
:101D100011240C946D0E0E944A0E70F3959FC1F32E
:101D2000950F50E0551F629FF001729FBB27F00D89
:101D3000B11D639FAA27F00DB11DAA1F649F6627DE
:101D4000B00DA11D661F829F2227B00DA11D621F2D
:101D5000739FB00DA11D621F839FA00D611D221FE7
:101D6000749F3327A00D611D231F849F600D211DCB
:101D7000822F762F6A2F11249F5750409AF0F1F04E
:101D800088234AF0EE0FFF1FBB1F661F771F881FB7
:101D900091505040A9F79E3F510580F00C94220EBF
:101DA0000C946D0E5F3FE4F3983ED4F386957795DF
:101DB0006795B795F795E7959F5FC1F7FE2B880F5D
:101DC000911D9695879597F9089519F416F40C943A
:101DD000280E0C94300F0E94520EB8F39923C9F3C9
:101DE000B6F39F57550B87FF0E943E0F0024A0E6D5
:101DF00040EA900180585695979528F4805C660FCC
:101E0000771F881F20F026173707480730F4621B1A
:101E1000730B840B202931294A2BA695179407941C
:101E2000202531254A2758F7660F771F881F20F095
:101E300026173707480730F4620B730B840B200D0D
:101E4000311D411DA09581F7B901842F9158880F4C
:101E50009695879508950E94FE0D880B990B08951D
:101E60009F3F31F0915020F4879577956795B7950E
:101E7000880F911D9695879597F908959150504038
:101E8000660F771F881FD2F70895A1E21A2EAA1BAA
:101E9000BB1BFD010DC0AA1FBB1FEE1FFF1FA2171A
:101EA000B307E407F50720F0A21BB30BE40BF50B17
:101EB000661F771F881F991F1A9469F760957095A0
:101EC000809590959B01AC01BD01CF010895EE0F67
:0E1ED000FF1F0590F491E02D0994F894FFCFC8
:101EDE00000000000A026A0197015702C801A6011C
:101EEE00BA010000000085035803B4032E0351030A
:101EFE003E032F030D0A006E616E00696E66006F61
:101F0E00766600466F756E642073656E736F720031
:101F1E004E6F20544353333437323520666F756E0F
:101F2E0064202E2E2E20636865636B20796F757288
:101F3E0020636F6E6E656374696F6E730020202070
:101F4E004300523A2000202000473A2000423A2017
:101F5E0000483A2000533A2000524544004752456B
:101F6E00454E004F52414E47450059454C4C4F5738
:101F7E0000505552504C45004E4F5448494E470064
:101F8E004552524F52002028636F733A2000292089
:021F9E00000041
:00000001FF
