:100000000C945D000C94B6040C948F040C94850041
:100010000C9485000C9485000C9485000C9485004C
:100020000C9485000C9485000C9485000C9485003C
:100030000C9485000C9485000C9485000C9485002C
:100040000C9445040C9485000C9413040C94ED035B
:100050000C9485000C9485000C9485000C9485000C
:100060000C94DD040C94850000000000240027009F
:100070002A0000000000250028002B0004040404CE
:100080000404040402020202020203030303030342
:10009000010204081020408001020408102001021F
:1000A00004081020000000080002010000030407FB
:1000B0000000000000000000FC0511241FBECFEF6F
:1000C000D8E0DEBFCDBF11E0A0E0B1E0ECE6F1E1A9
:1000D00002C005900D92AC32B107D9F722E0ACE234
:1000E000B1E001C01D92A43DB207E1F710E0CDE5FB
:1000F000D0E004C02197FE010E94AE08CC35D107A4
:10010000C9F70E948E060C94B4080C940000982F36
:100110002091EA0181E0213208F043C08091C601BC
:100120008111FCCF8091E90132E03093C6019093B8
:10013000C5019FEF9093C4011092C3012093C201A7
:10014000A9ECB1E0E2EAF1E090E0291331C01092AD
:10015000A1019091A101880F892B8093A101809129
:10016000A001813049F51092A0018091A1018093F6
:10017000BB008091BC0083FDF8CF85EC8093BC0070
:100180008091C6018230E1F38091C4018F3FB1F0CC
:100190008091C4018032A1F08091C401803391F03C
:1001A00084E01092C8011092EA011092C7010895EC
:1001B0003D9131939F5FC9CF85EEE0CF80E0F1CFD5
:1001C00082E0EFCF83E0EDCF90E0FC01EC55FF4FF4
:1001D0002491FC01E057FF4F3491FC01E458FF4F9C
:1001E000E491EE23B1F0222339F02330E9F090F4CA
:1001F000213001F1223011F1F0E0EE0FFF1FEE5837
:10020000FF4FA591B4918FB7F894EC913E2B3C939E
:100210008FBF08952730A9F02830C9F0243061F746
:10022000809180008F7D03C0809180008F778093C4
:100230008000E2CF84B58F7784BDDECF84B58F7D1B
:10024000FBCF8091B0008F778093B000D5CF8091A5
:10025000B0008F7DF9CF0895089510929F011092FC
:100260009E011092C8011092EA011092C60181E02D
:100270008093C5011092A00182E10E94E40083E115
:100280000E94E400E9EBF0E080818E7F8083808132
:100290008D7F808388E48093B80085E48093BC00E0
:1002A0008BE291E090939D0180939C018CE291E020
:1002B00090939B0180939A01089580919801909169
:1002C0009901019690939901809398010895AF92B6
:1002D000BF92CF92DF92EF92FF920F931F93CF9333
:1002E000DF936C017B018B01040F151FEB015E0195
:1002F000AE18BF08C017D10759F06991D601ED912A
:10030000FC910190F081E02DC6010995892B79F7C8
:10031000C501DF91CF911F910F91FF90EF90DF907A
:10032000CF90BF90AF900895FC01538D448D252F41
:1003300030E0842F90E0821B930B541710F0CF967F
:10034000089501970895FC01918D828D981761F0B1
:10035000A28DAE0FBF2FB11D5D968C91928D9F5FC8
:100360009F73928F90E008958FEF9FEF0895FC01A7
:10037000918D828D981731F0828DE80FF11D858D5A
:1003800090E008958FEF9FEF0895FC01918D228DED
:10039000892F90E0805C9F4F821B91098F73992772
:1003A00008958BEE91E00E94C50121E0892B09F4AC
:1003B00020E0822F089580E090E0892B29F00E94B0
:1003C000D10181110C9400000895FC01A48DA80FA7
:1003D000B92FB11DA35ABF4F2C91848D90E0019687
:1003E0008F739927848FA689B7892C93A089B189A7
:1003F0008C91837080648C93938D848D981306C048
:100400000288F389E02D80818F7D80830895EF92AB
:10041000FF920F931F93CF93DF93EC0181E0888FBE
:100420009B8D8C8D98131AC0E889F989808185FF8E
:1004300015C09FB7F894EE89FF896083E889F98930
:1004400080818370806480839FBF81E090E0DF9132
:10045000CF911F910F91FF90EF900895F62E0B8D85
:1004600010E00F5F1F4F0F731127E02E8C8D8E1140
:100470000CC00FB607FCFACFE889F989808185FFA7
:10048000F5CFCE010E94E501F1CFEB8DEC0FFD2FF2
:10049000F11DE35AFF4FF0829FB7F8940B8FEA8962
:1004A000FB8980818062CFCFCF93DF93EC01888D71
:1004B0008823B9F0AA89BB89E889F9898C9185FDDF
:1004C00003C0808186FD0DC00FB607FCF7CF8C916D
:1004D00085FFF2CF808185FFEDCFCE010E94E5013F
:1004E000E9CFDF91CF9108953FB7F89480917401DF
:1004F00090917501A0917601B091770126B5A89BE6
:1005000005C02F3F19F00196A11DB11D3FBFBA2FA5
:10051000A92F982F8827BC01CD01620F711D811D65
:10052000911D42E0660F771F881F991F4A95D1F7EA
:100530000895089585ED8093BC008091BC0084FDF2
:10054000FCCF1092C601089520914C01260F33274D
:10055000331F21323105ECF42091C601FC0190E0FB
:1005600080E0243069F082E00895A0914C0121914F
:10057000AC01445D5E4FA40FB52FB11D2C930196C5
:10058000861798F380914C01680F60934C0180E0CE
:10059000089581E008950895E0919F0180919E0162
:1005A000E81730F4F0E0E858FE4F808190E00895BD
:1005B0008FEF9FEF089590919F0180919E012FEF03
:1005C0003FEF981748F4E92FF0E0E858FE4F2081FC
:1005D00030E09F5F90939F01C901089580919E0133
:1005E00090919F01891B990B0895CF92DF92EF9212
:1005F000FF920F931F93CF93DF937C01CB018A016E
:100600002091C701222389F0EB016B01C40ED51E96
:10061000CC15DD0569F06991D701ED91FC91019050
:10062000F081E02DC7010995F3CF642F0E94A40249
:10063000C801DF91CF911F910F91FF90EF90DF9054
:10064000CF900895CF93DF931F92CDB7DEB7698324
:100650002091C7012223F9F02091EA01203258F0BD
:1006600021E030E0FC013383228390E080E00F90B2
:10067000DF91CF9108958091C801E82FF0E0E75312
:10068000FE4F998190838F5F8093C8018093EA0128
:1006900081E090E0ECCF61E0CE0101960E94A402DF
:1006A000F7CF682F88E892E00C942203CF93C62FEF
:1006B0009091D30221E02093C7019093E901109219
:1006C000C8011092EA01682F88E892E00E94220394
:1006D0006C2F88E892E00E94220381E0CF910C9475
:1006E00087000F931F93CF93DF93042FD52F122FE3
:1006F000C32FFC01808191E09093C7018093E901B1
:100700001092C8011092EA01F4E06F9FB001112429
:100710006A5F7F4F88E892E00E942203802F9D2F1E
:100720000E9451038D2F90E00E945103812F9C2F36
:100730000E9451038C2F90E00E94510381E0DF91D1
:10074000CF911F910F910C94870090E080E0089565
:10075000CF93DF93EC016230D1F0643051F161301E
:10076000C9F58B819C8130E020E050E040E06A8157
:10077000CD960E9471038B819C8130E020E040E0A7
:1007800050E16981CD96DF91CF910C9471038B81FB
:100790009C8130E020E050E040E06981CD960E94ED
:1007A00071038B819C8130E020E040E050E16A8160
:1007B000E9CF8B819C8130E020E050E040E069810E
:1007C000CD960E9471038B819C8130E020E050E047
:1007D00040E0EDCFDF91CF9108951F920F920FB6B9
:1007E0000F9211242F933F934F935F936F937F93B7
:1007F0008F939F93AF93BF93EF93FF938BEE91E013
:100800000E94E501FF91EF91BF91AF919F918F9170
:100810007F916F915F914F913F912F910F900FBEFC
:100820000F901F9018951F920F920FB60F921124E0
:100830002F938F939F93EF93FF93E091FB01F091A0
:10084000FC018081E0910102F091020282FD1BC057
:100850009081809104028F5F8F732091050282172F
:1008600041F0E0910402F0E0E551FE4F958F809356
:100870000402FF91EF919F918F912F910F900FBEE6
:100880000F901F9018958081F4CF1F920F920FB692
:100890000F9211242F933F938F939F93AF93BF9306
:1008A0008091700190917101A0917201B0917301DA
:1008B00030916F0123E0230F2D3758F50196A11DCC
:1008C000B11D20936F018093700190937101A093EB
:1008D0007201B09373018091740190917501A091A0
:1008E0007601B09177010196A11DB11D809374012D
:1008F00090937501A0937601B0937701BF91AF916A
:100900009F918F913F912F910F900FBE0F901F904D
:10091000189526E8230F0296A11DB11DD2CF1F9274
:100920000F920FB60F9211242F933F934F935F9323
:100930006F937F938F939F93AF93BF93EF93FF93A7
:10094000E0910201F09103010995FF91EF91BF91B0
:10095000AF919F918F917F916F915F914F913F9157
:100960002F910F900FBE0F901F9018951F920F920E
:100970000FB60F9211242F933F934F935F936F9372
:100980007F938F939F93AF93BF93EF93FF93E091E8
:100990000001F09101010995FF91EF91BF91AF9195
:1009A0009F918F917F916F915F914F913F912F9187
:1009B0000F900FBE0F901F9018951F920F920FB6B9
:1009C0000F9211242F933F934F935F936F937F93D5
:1009D0008F939F93AF93BF93EF93FF938091B90051
:1009E000887F803609F44AC0F0F5883209F4A7C040
:1009F00018F5803109F49BC0B8F4882309F4F9C0D4
:100A0000883009F494C0FF91EF91BF91AF919F910D
:100A10008F917F916F915F914F913F912F910F90A7
:100A20000FBE0F901F901895883109F488C080324E
:100A300051F78093C40114C0803409F49DC040F480
:100A40008033B9F38833F9F68093C40185ECB0C0E4
:100A5000803509F485C0883509F496C0883499F644
:100A60000E949A02D0CF883909F48CC038F58837B3
:100A700029F050F4883611F0803729F683E080930E
:100A8000C60110926E0157C0883809F47BC08039C6
:100A900019F0803809F0B7CF80916E01803208F0EC
:100AA00071C0E0916E0181E08E0F80936E018091A4
:100AB000BB00F0E0E25BFE4F80833DC0803B39F03D
:100AC000E0F4803A09F479C0883A09F09CCF84E0D8
:100AD0008093C60110924D0110924C01E0919C014F
:100AE000F0919D01099580914C0181110FC081E029
:100AF00080934C0110922C0109C0803C09F4A6CFD0
:100B0000883C09F4A3CF883B09F07DCFE0914D01EB
:100B100081E08E0F80934D01F0E0E45DFE4F808117
:100B20008093BB0090914D0180914C0129C0809130
:100B3000A1018093BB0085EC8093BC0064CF9091B1
:100B4000C3018091C201981758F5E091C30181E07B
:100B50008E0F8093C301F0E0EE55FE4F8081E9CF08
:100B6000E091C30181E08E0F8093C3018091BB00AF
:100B7000F0E0EE55FE4F80839091C3018091C20159
:100B80009817C8F285E8D8CFE091C30181E08E0FB5
:100B90008093C3018091BB00F0E0EE55FE4F80834F
:100BA0008091C50181115CCF81E08093A00184EA2E
:100BB0008093BC001092C60126CF85EC8093BC00C8
:100BC0001092C60180916E01803230F4E0916E0186
:100BD000F0E0E25BFE4F108260916E0170E0E09108
:100BE0009A01F0919B018EE491E0099510926E01BB
:100BF0000ACF1092C40134CF1092EE011092ED0191
:100C000088EE93E0A0E0B0E08093EF019093F001D4
:100C1000A093F101B093F20129E031E03093EC01AF
:100C20002093EB0125EC30E03093F8012093F7019D
:100C300024EC30E03093FA012093F90120EC30E00D
:100C40003093FC012093FB0121EC30E03093FE0156
:100C50002093FD0122EC30E0309300022093FF014D
:100C600026EC30E03093020220930102109204023D
:100C700010920502109206021092070210928B0247
:100C800010928A0280938C0290938D02A0938E0220
:100C9000B0938F028BE191E0909389028093880258
:100CA000EBE9F2E083EB92E0148213821582128268
:100CB0001182108236968E179F07B1F71092BF02ED
:100CC0001092C2021092BE021092BD021092CF0288
:100CD0001092D2021092CE021092CD0280E6809342
:100CE00098028093D3028091A002882339F08BE987
:100CF00092E09093950280939402089586E992E0A1
:100D000090939F0280939E0288E080939B028AE0EA
:100D100080939C0289E080939D02E9CFCF93DF937B
:100D2000CDB7DEB7A1970FB6F894DEBF0FBECDBF2B
:100D3000789484B5826084BD84B5816084BD85B5B6
:100D4000826085BD85B5816085BD80916E008160C2
:100D500080936E0010928100809181008260809368
:100D6000810080918100816080938100809180006A
:100D70008160809380008091B10084608093B10095
:100D80008091B00081608093B00080917A0084608F
:100D900080937A0080917A00826080937A008091BB
:100DA0007A00816080937A0080917A0080688093D5
:100DB0007A001092C100E091FB01F091FC0182E009
:100DC0008083E091F701F091F8011082E091F90140
:100DD000F091FA018FEC808310920302E091FF0101
:100DE000F091000286E08083E091FD01F091FE0128
:100DF000808180618083E091FD01F091FE0180811E
:100E000088608083E091FD01F091FE01808180681F
:100E10008083E091FD01F091FE0180818F7D8083D0
:100E2000E2E9F0E02491EEE7F0E084918823C9F054
:100E300090E0880F991FFC01E859FF4F45915491AC
:100E4000FC01EE58FF4FA591B4919FB7F894FA01B9
:100E500080812095822380838C91E22FE823EC937C
:100E60009FBF8DE591E090930101809300018091F7
:100E700069008C7F826080936900E89A88E892E03C
:100E800090939702809396020E942D010E942D015B
:100E900060E080E00E94560380E496E090939A021E
:100EA000809399028091D30291E09093C70180933F
:100EB000E9011092C8011092EA0160E088E892E02E
:100EC0000E94220381E00E9487008091D3029091CA
:100ED000C6019111FCCF91E09093C6019093C5019A
:100EE0002FEF2093C4011092C3011092C20190937E
:100EF000A1019091A101880F892B8093A10180917C
:100F0000A001813009F0ECC01092A0018091A101F4
:100F10008093BB008091BC0083FDF8CF85EC80936B
:100F2000BC008091C6018130E1F38091C30191E062
:100F3000811102C09091C301A2EAB1E0E8E7F1E0BB
:100F400080E08913CFC010929F0180939E0188E8B2
:100F500092E00E94DB02182F682F6F76606180E0BC
:100F60000E94560363E08EEF0E945603612F80E0DB
:100F70000E9456030E9474026B017C0195E0892E49
:100F8000912CA12CB12C0E9474026C197D098E0940
:100F90009F09683E734081059105A8F3F1E08F1A1F
:100FA0009108A108B10828EEC20E23E0D21EE11C70
:100FB000F11C81149104A104B10429F7612F616A25
:100FC00080E00E94560310E030E020E050E040E076
:100FD000612F83ED92E00E9471031F5F1031A1F732
:100FE0000091940210919502F8018381948120E68A
:100FF00039E050E040E06081CD960E94710360913D
:101000000401C8010E94A8038AE0882E912CA12C1B
:10101000B12C00E010E080919801909199018B3FF4
:10102000910594F010929901109298018091040119
:1010300061E0813009F462E06093040180919402E0
:10104000909195020E94A803C0909801D0909901B8
:101050000D2C000CEE08FF08F7FE48C06DE28BEE89
:1010600091E00E94070222273327A9012C193D098C
:101070004E095F0919A2CE0181967C01CA01B9010E
:10108000A50194010E948C08605DF70162937F01C5
:10109000211531054105510589F7E114F10461F08D
:1010A00001900020E9F73197AF014E195F09B701B0
:1010B0008BEE91E00E94670142E050E069E271E04E
:1010C0008BEE91E00E9467010115110509F4A3CF91
:1010D0000E94D101882309F49ECF0E9400009BCF7B
:1010E00085EE1DCF2D9121938F5F2BCFA701960108
:1010F00019A2CE0181967C01CA01B901A501940112
:101100000E948C08605DF70162937F012115310513
:101110004105510589F7C1CFA1E21A2EAA1BBB1BBD
:10112000FD010DC0AA1FBB1FEE1FFF1FA217B307B3
:10113000E407F50720F0A21BB30BE40BF50B661FC9
:10114000771F881F991F1A9469F76095709580958D
:1011500090959B01AC01BD01CF010895EE0FFF1FDB
:0C1160000590F491E02D0994F894FFCF65
:10116C0099029902010000000007026701940154E2
:10117C0002C501A301B701000000002203F502A57E
:0C118C0003CB02EE02DB02CC020D0A00D5
:00000001FF
